:03000000020E06E7
:0C0E0600787FE4F6D8FD758120020E4DC7
:10080000496E636F7272656374203D203000596FCA
:10081000752057696E2100596F75204C6F73650004
:100820006D696E6900006D6963726F006D69637256
:100830006F6E726F6F74000070697A7A6100686F12
:100840007374656C68656174000073686F7274001E
:1008500067726F756E64746573740000686F75738A
:100860006500636F756E747973686F650000736FF0
:10087000636B73006472696E6B73666F6F64000004
:100880007761746572006F72616E676564726F7014
:10089000000068616972790073696E6765726669E4
:1008A0006C6D0000736F756E6400646F75626C65CB
:1008B00077616C6C0000737465656C0074726176AE
:1008C000656C62616E6B00006669786564007072C9
:1008D000696E63656B696E670000717565656E00B2
:1008E000626973686F707061776E0000636865732A
:1008F00073006B6E69676874726F6F6B000063687A
:1009000065636B0077696E6E657262696B65000086
:100910006379636C650072756E6E65727377696D6D
:100920000000706C616E7400667275697473726F2A
:100930006F7400006C69676874006D6972726F7221
:100940007069636B000070726F6F6600626F747421
:100950006C6573686970000066696768740062613D
:1009600074746C65666F727400006D6F756E7400E0
:1009700062726163657373706F740000626F61729D
:10098000640073706F7274737265616C00007472CE
:10099000757468007265616C6C796F70656E0000CB
:1009A000636C6F7365006F75746C657473686F70DA
:1009B0000000666C7965720077696E646F777361A9
:1009C00066650000656D61696C00736561726368DE
:1009D000686572650000666C6173680073747269A3
:1009E0006E67746F6F6C000064656275670069679D
:1009F0006E6F72657761726E00006275696C64007B
:100A000073657269616C747275650000636174630B
:100A1000680074617267657468616E67000068657C
:100A20006C6C6F00776F6E6465727965617200003F
:100A30007269676874007461637469637475726E57
:100A4000000066616C736500636F64696E6767615F
:100A50006D65000067726F757000736F7572636506
:100A600068656C7000007374617274006F626A650F
:080A700063747265616C000003
:040FA900C101C100C1
:100E9200E4F5A0C282C280C2817F38FE120F5312D3
:100EA2000F2F7F067E00120F53120F2F7F0C7E0032
:100EB200120F53120F2F7F017E00120F53120F2FAA
:070EC2007F807E00020F5348
:040F2F007F047E00BD
:100F3300E4FDFCC3ED9FEC9E5015E4FBFA0BBB00F4
:0F0F4300010ABA01F8BB7EF50DBD00010C80E478
:010F5200227C
:100C6A00900087EEF0A3EFF0A3EBF0A3EAF0A3E97C
:100C7A00F0900087E0FEA3E0FF7C277D10120D9B19
:100C8A00EF2430FFA3E0FBA3E0FAA3E0F9EF120D93
:100C9A0067900087E0FEA3E0FF7C277D10120D9B82
:100CAA007E037FE8CFCDCFCECCCE120D9BEF243082
:100CBA00FFA3E0FBA3E0FAA3E0F9900001EF120D15
:100CCA0079900087E0FEA3E0FF7C037DE8120D9B8C
:100CDA007E007F64CFCDCFCECCCE120D9BEF2430D9
:100CEA00FFA3E0FBA3E0FAA3E0F9900002EF120DE4
:100CFA0079900087E0FEA3E0FF7C007D64120D9BE3
:100D0A007E007F0ACFCDCFCECCCE120D9BEF243002
:100D1A00FFA3E0FBA3E0FAA3E0F9900003EF120DB2
:100D2A0079900087E0FEA3E0FF7C007D0A120D9B0C
:100D3A00ED2430FFA3E0FBA3E0FAA3E0F99000045E
:040D4A00EF020D792E
:100F5300C280C281D2828FA07F0A7E00120F33C269
:020F63008222E8
:100F6500D280C281D2828FA07F0A7E00120F33C247
:020F75008222D6
:100EC900900084EBF0A3EAF0A3E9F0900084E0FB42
:100ED900A3E0FAA3E0F9120D4E6017900084A3E491
:100EE90075F001120DF0A9F0FA120D4EFF120F65FF
:030EF90080D9227B
:100F7700758920758DF3759850D28ED2ACD2AF2279
:080FA1008F993001FDC201220D
:100EFC0090008CEBF0A3EAF0A3E9F090008CE0FBFF
:100F0C00A3E0FAA3E0F9120D4E601790008CA3E455
:100F1C0075F001120DF0A9F0FA120D4EFF120FA18F
:030F2C0080D92247
:090F9700E4FF3000FDC200AF9937
:010FA000222E
:03002300020F8742
:100F8700309905C299D20132309804C298D2003202
:100A7800E4900000F09000037406F0E4A3F0A3F003
:100A880075900F900001F0900001E0C394647480A9
:100A98009480501FE0FF75F00384E5F02404FE7491
:100AA800062FF582E43400F583EEF0900001E004AF
:100AB800F080D4120E92120F77E4900002F09000AA
:100AC80002E0C39464748094804003020C69E4904B
:100AD8000001F0900001E0FFC3941A7480948050E4
:100AE80014746A2FF582E43400F583E4F090000171
:100AF800E004F080DE7F017E00120F537F857E00C8
:100B0800120F53E4900001F0900002E02406F582F1
:100B1800E43400F583E0FF900001E0C39F500A7FB2
:100B28005F120F65E004F080DF7FC17E00120F5373
:100B38007BFF7A087900120EC9900002E02406F5BE
:100B480082E43400F583E0900003F0E4A3F0900021
:100B580003E0D394007480948040047F0180027F76
:100B680000900004E0C394067480948050047E01D1
:100B780080027E00EE5F7003020C30120F97900027
:100B880000EFF0E4900005F0900000E0FF2409F584
:100B980082E43400F583E0707B74092FF582E43435
:100BA80000F5837401F0E4900001F0900001E0FF8B
:100BB800FD7C00C3940674809480504CA3E075F0CB
:100BC80006A42420F582E5F03408F583E5822FF5A4
:100BD80082E43583F583E493FF900000E0FEEFB5EF
:100BE800061E9000057401F0ED2485FFEC33FE121B
:100BF8000F53900000E0FF120F65900003E014F01F
:100C0800900001E004F080A3900005E070069000D9
:100C180004E004F07FCD7E00120F53900004E0241E
:100C280030FF120F65020B567FF47E01120F337FDF
:100C3800011E120F537F847E00120F53900003E0B1
:100C48007BFF70067A08790E80047A087917120EED
:100C5800C97FD07E07120F33900002E004F0020A29
:010C6800C6C5
:010C69002268
:100E1200020A78E493A3F8E493A34003F68001F274
:100E220008DFF48029E493A3F85407240CC8C333E1
:100E3200C4540F4420C8834004F456800146F6DFB0
:100E4200E4800B0102040810204080900FA9E47E88
:100E5200019360BCA3FF543F30E509541FFEE493A5
:100E6200A360010ECF54C025E060A840B8E493A36C
:100E7200FAE493A3F8E493A3C8C582C8CAC583CA97
:100E8200F0A3C8C582C8CAC583CADFE9DEE780BE4F
:010FAD000043
:100D4E00BB010689828A83E0225002E722BBFE02A3
:090D5E00E32289828A83E49322D6
:100D6700BB010689828A83F0225002F722BBFE016B
:020D7700F32265
:100D7900F8BB010DE58229F582E5833AF583E8F0B0
:100D8900225006E92582C8F622BBFE05E92582C85C
:020D9900F22244
:100D9B00BC000BBE0029EF8DF084FFADF022E4CC3C
:100DAB00F875F008EF2FFFEE33FEEC33FCEE9DEC05
:100DBB00984005FCEE9DFE0FD5F0E9E4CEFD22ED4B
:100DCB00F8F5F0EE8420D21CFEADF075F008EF2F95
:100DDB00FFED33FD4007985006D5F0F222C398FD86
:050DEB000FD5F0EA2223
:100DF000A3F8E0C5F025F0F0E582158270021583B6
:060E0000E0C838F0E82212
:00000001FF
